:020000040800F2
:10000000080D002065040008010200080302000832
:10001000070200080B0200080F02000800000000A1
:1000200000000000000000000000000013020008B3
:10003000150200080000000017020008190200085D
:100040007F0400087F0400087F0400087F04000884
:100050007F0400087F0400087F0400087F04000874
:100060007F0400087F0400087F0400087F04000864
:100070007F0400087F0400087F0400087F04000854
:100080007F0400087F0400087F0400087F04000844
:100090007F0400087F0400087F0400087F04000834
:1000A0007F0400087F0400087F0400087F04000824
:1000B0007F0400081B0200087F0400087F0400087A
:1000C0007F0400087F0400087F0400087F04000804
:1000D0007F0400087F0400087F0400087F040008F4
:1000E0007F0400087F0400087F04000800F002F885
:1000F00000F05AF80AA090E8000C82448344AAF168
:100100000107DA4501D100F04FF8AFF2090EBAE865
:100110000F0013F0010F18BFFB1A43F0010318473B
:10012000D0390000F03900000A444FF0000C10F8FC
:10013000013B13F0070408BF10F8014B1D1108BF65
:1001400010F8015B641E05D010F8016B641E01F805
:10015000016BF9D113F0080F1EBF10F8014BAD1C55
:100160000C1B09D16D1E58BF01F801CBFAD505E073
:1001700014F8016B01F8016B6D1EF9D59142D6D3CD
:10018000704700000023002400250026103A28BFF5
:1001900078C1FBD8520728BF30C148BF0B607047F9
:1001A0001FB51FBD10B510BD02F03FFE1146FFF791
:1001B000F7FF00F009F802F05DFE03B4FFF7F2FF6D
:1001C00003BC02F061FE000001F08EFC4FF4A06061
:1001D00000F068F901F062FC02F030FC01F042FF2F
:1001E00002F03AFD02F0BFFB03A20621382002F024
:1001F0003FF900BFFEE7000033354D2E2E2E0000E4
:10020000704700BFFEE700BFFEE700BFFEE700BF8C
:10021000FEE7704770477047704710B501211348DB
:1002200001F024FC12480068401C11490860114884
:10023000006828B110480068401C0F49086002E0BF
:1002400000200D4908600D480088401C0B490880BB
:10025000084600880A2807D109480068401C084958
:10026000086000200549088010BD0000000400401F
:10027000740200208C020020800200200000002078
:10028000040000200CB50020019000906C4800682C
:1002900040F480306A49086000BF6948006800F493
:1002A000003000900198401C0190009818B9019806
:1002B000B0F5A06FF1D16248006800F4003010B1D1
:1002C0000120009001E0002000900098012843D117
:1002D0005C48006840F010005A4908600846006811
:1002E00020F0030008600846006840F00200086043
:1002F000534840685249486008464068486008468C
:10030000406840F4806048600846406820F47C10F3
:1003100048600846406840F4E810486008460068B5
:1003200040F08070086000BF4548006800F0007031
:100330000028F9D04248406820F003004049486056
:100340000846406840F00200486000BF3C484068F2
:1003500000F00C000828F9D10CBD10B5FFF792FF92
:1003600010BD10B53648006840F0010034490860FF
:1003700008464068344908403149486008460068EA
:10038000324908402E4908600846006820F4802061
:1003900008600846406820F4FE0048604FF41F00E3
:1003A0008860FFF7DAFF4FF000602949086010BD50
:1003B00010B5002100200022214B5B6803F00C01E6
:1003C00021B1042906D0082928D107E0214B224C6D
:1003D000236027E01F4B204C236023E0184B5B6811
:1003E00003F47010164B5B6803F48032022303EBB6
:1003F000904022B9194B4343174C23600DE0104B3A
:100400005B6803F4003323B1144B4343124C236065
:1004100003E0104B4343104C236003E00D4B0E4CA4
:10042000236000BF00BF064B5B68C3F303130C4C93
:10043000E15C094B1B68CB40074C236010BD0000FA
:1004400000100240002002400000FFF8FFFFF6FE0F
:1004500008ED00E000127A000800002000093D00CD
:100460000C0000200948804709480047FEE7FEE7E6
:10047000FEE7FEE7FEE7FEE7FEE7FEE7FEE7FEE754
:1004800004480549054A064B70470000630300080D
:10049000ED00000808070020080D002008090020D2
:1004A0000809002031490143314A1160704770B595
:1004B000002100230F22C47804B32D4C246804F4D7
:1004C000E064C4F5E064210AC1F10403CA40447841
:1004D00004FA03F18478144021430901254C06787D
:1004E000A155047804F01F050124AC4005786D1176
:1004F000AD0005F1E025C5F8004109E0047804F0FD
:100500001F050124AC401C4D0678761145F82640A5
:1005100070BD1A4A0A400243154B1B1F1A607047F0
:1005200039B1134A121D12680243114B1B1D1A6088
:1005300006E00F4A121D126882430D4B1B1D1A6004
:100540007047042808D14FF0E021096941F0040107
:100550004FF0E022116107E04FF0E021096921F03E
:1005600004014FF0E0221161704700000000FA051D
:100570000CED00E000E400E080E100E080FFFF1F00
:1005800010B50446CC48844208D10121042000F073
:100590002DFB0021042000F029FB46E0C7488442DF
:1005A00008D10121082000F021FB0021082000F0E3
:1005B0001DFB3AE0C248844208D10121102000F01E
:1005C00015FB0021102000F011FB2EE0BD488442F5
:1005D00008D10121202000F009FB0021202000F09B
:1005E00005FB22E0B848844208D10121402000F0F8
:1005F000FDFA0021402000F0F9FA16E0B3488442E9
:1006000008D10121802000F0F1FA0021802000F0C3
:10061000EDFA0AE0AE48844207D10121801500F0CE
:10062000E5FA0021A01500F0E1FA10BD10B5012196
:10063000084600F0DBFA0021012000F0D7FA10BDD7
:100640002DE9F04102460025002600200023002469
:10065000002791F803C00CF00F0591F803C00CF0CF
:10066000100CBCF1000F03D091F802C04CEA050554
:1006700091F800C0BCF1000F31D0146800202BE0CD
:100680004FF0010C0CFA00F3B1F800C00CEA0306BD
:100690009E4220D183004FF00F0C0CFA03F7BC43AD
:1006A00005FA03FC4CEA040491F803C0BCF1280FDE
:1006B00006D14FF0010C0CFA00FCC2F814C00AE09D
:1006C00091F803C0BCF1480F05D14FF0010C0CFAB2
:1006D00000FCC2F810C0401C0828D1D31460B1F847
:1006E00000C0BCF1FF0F34DD546800202EE000F1A3
:1006F000080C4FF0010808FA0CF3B1F800C00CEA3E
:1007000003069E4221D183004FF00F0C0CFA03F731
:10071000BC4305FA03FC4CEA040491F803C0BCF1A5
:10072000280F05D100F1080C08FA0CF8C2F8148063
:1007300091F803C0BCF1480F07D100F1080C4FF04D
:10074000010808FA0CF8C2F81080401C0828CED323
:100750005460BDE8F0814FF6FF7101800221817085
:100760000421C17070470246002093680B400BB112
:10077000012000E0002070470146886880B2704781
:1007800002460020D3680B400BB1012000E000209E
:1007900070470146C86880B2704701617047416187
:1007A00070470AB1016100E041617047C160704764
:1007B0004FF480320A438261816182618269826979
:1007C000704702460020434B18684FF6807318406C
:1007D00040EA021008433F4B186070473E49C86129
:1007E0007047F0B50A46002300240021002500F0E0
:1007F0000046B6F1004F02D1364EF16901E0354EA8
:100800007168C0F3034583B200F44016B6F5401F8B
:1008100008D121F070612F4E766826F070662D4F5A
:100820007E6012E000F48016B6F5801F06D1032624
:1008300006FA05F4A14341F0706106E0460D360169
:1008400003FA06F6B14341F0706122B1460D36015C
:1008500003FA06F6314300F00046B6F1004F02D12C
:100860001C4EF16101E01B4E7160F0BD30B50022FD
:100870008B071C0F0F2303FA04F2164B08338C105E
:1008800053F824309343134C08348D1044F825302A
:1008900023468C1053F824308C07240F00FA04F4FC
:1008A00023430C4C08348D1044F8253030BD0A49E0
:1008B000DC3108607047000000080140000C014076
:1008C000001001400014014000180140001C0140CC
:1008D000002001400000014000002042DF48006885
:1008E00040F00100DD49086008464068DC490840E6
:1008F000DA49486008460068DA490840D749086084
:100900000846006820F4802008600846406820F40B
:10091000FE0048604FF41F0088607047CF490968A7
:1009200021F48031CD4A11601146096821F48021FB
:100930001160B0F5803F03D0B0F5802F0ED106E0F6
:10094000C649096841F48031C44A116007E0C349CF
:10095000096841F4A021C14A116000E000BF00BF56
:10096000704710B501460022002300204A11012AD9
:1009700002D1BA4C236806E0022A02D1B74C236A9E
:1009800001E0B64C636A01F01F02012494401C4050
:100990000CB1012000E0002010BD38B5002000900F
:1009A0000024002500BF3120FFF7DBFF054600983B
:1009B000401C00900098B0F5A06F01D0002DF2D03F
:1009C0003120FFF7CEFF08B1012400E000242046CB
:1009D00038BD01460020A14A106820F0F80040EA26
:1009E000C10010607047A0490860704702460020AF
:1009F0009A4B586820F47C1042EA01031843974B45
:100A00005860704798490866704701460020934A2D
:100A1000506820F003000843506070478F484068DA
:100A200000F00C007047014600208C4A506820F00E
:100A3000F00008435060704701460020874A506824
:100A400020F4E06008435060704701460020834A6C
:100A5000506820F4605040EAC1005060704729B1EE
:100A60007E4A527A02437D4B5A7204E07B4A527AA4
:100A700082437A4B5A7270477B49D831086070477D
:100A800001460020754A506820F4404008435060F9
:100A900070470021714A20321170704A82F820108C
:100AA000012802D004280AD104E001216B4A203237
:100AB000117005E00521694A2032117000E000BF85
:100AC00000BF70476949086070476449096A01437B
:100AD000624A11627047654944390860704730B511
:100AE00000210022002400235C4D6D6805F00C01FC
:100AF00021B1042905D0082923D105E05C4D05600A
:100B000022E05B4D05601FE0544D6D6805F47012E6
:100B1000524D6D6805F48034022505EB92421CB9F4
:100B2000544D554305600BE04C4D6D6805F40035A0
:100B30001DB1504D5543056002E04D4D55430560D4
:100B400002E04B4D056000BF00BF444D6D6805F0ED
:100B5000F0010909484D6B5C0568DD4045603F4D7B
:100B60006D6805F4E061090A434D6B5C4568DD4042
:100B700085603A4D6D6805F46051C90A3E4D6B5C65
:100B80004568DD40C560354D6D6805F44041890B11
:100B90003A4D6B5CC568B5FBF3F5056130BD29B115
:100BA0002E4A526902432D4B5A6104E02B4A526986
:100BB00082432A4B5A61704729B1284A92690243FD
:100BC000264B9A6104E0254A92698243234B9A613D
:100BD000704729B1214AD2690243204BDA6104E00F
:100BE0001E4AD26982431D4BDA61704729B11B4A04
:100BF000D2680243194BDA6004E0184AD268824393
:100C0000164BDA60704729B1144A12690243134B3C
:100C10001A6104E0114A12698243104B1A6170474D
:100C200012494039086070470F49C86470470B4942
:100C3000C87170470948406A40F0807007494862AF
:100C4000704701460020054A92680A400AB1012017
:100C500000E0002070470149887270470010024090
:100C60000000FFF8FFFFF6FE00004242800442420F
:100C700000127A0000093D001C0000202C0000201A
:100C800010B50446FE48844208D10121C014FFF784
:100C9000ADFF0021E014FFF7A9FFC4E0B4F1804FDD
:100CA00008D101210846FFF7AEFF00210120FFF720
:100CB000AAFFB8E0F348844208D101210220FFF7DF
:100CC000A2FF00210220FFF79EFFACE0EE48844225
:100CD00008D101210420FFF796FF00210420FFF72F
:100CE00092FFA0E0E948844208D101210820FFF7E3
:100CF0008AFF00210820FFF786FF94E0E448844241
:100D000008D101211020FFF77EFF00211020FFF7FE
:100D10007AFF88E0DF48844208D101212020FFF7D4
:100D200072FF00212020FFF76EFF7CE0DA4884424A
:100D300008D101214014FFF759FF00216014FFF78B
:100D400055FF70E0D548844209D10121C804FFF75E
:100D50004DFF00214FF40020FFF748FF63E0D0482B
:100D6000844209D101210805FFF740FF00214FF41B
:100D70008010FFF73BFF56E0CA48844209D10121A9
:100D80004805FFF733FF00214FF40010FFF72EFF57
:100D900049E0C548844208D101214020FFF733FFD4
:100DA00000214020FFF72FFF3DE0C048844208D1DA
:100DB00001218020FFF727FF00218020FFF723FF7C
:100DC00031E0BB48844208D101218015FFF71BFFA9
:100DD0000021A015FFF717FF25E0B648844209D18E
:100DE00001210804FFF702FF00214FF48030FFF7D4
:100DF000FDFE18E0B048844209D101214804FFF704
:100E0000F5FE00214FF40030FFF7F0FE0BE0AB4899
:100E1000844208D101218804FFF7E8FE00214FF445
:100E20008020FFF7E3FE10BD00220288944B984219
:100E30000ED0994B98420BD0B0F1804F08D0914B17
:100E4000984205D0904B984202D0904B984204D1E2
:100E50004FF68F731A404B881A438D4B984207D038
:100E60008C4B984204D04FF6FF431A40CB881A436C
:100E700002808B8883850B880385814B98420BD039
:100E8000854B984208D08B4B984205D08A4B9842AC
:100E900002D08A4B984201D10B7A038601238382C8
:100EA000704770B5002400220023058C4FF6FE76B3
:100EB00035400584028C8388048B4FF68F752C4057
:100EC000B51E2C400D882C43751E2A400D892A43DF
:100ED0004D882A436A4DA8420BD06F4DA84208D0D6
:100EE000744DA84205D0744DA84202D0734DA8425B
:100EF00013D14FF6F7752A404D892A434FF6FB75FB
:100F00002A408D882A434FF6FF652B404FF6FF5548
:100F10002B408D892B43CD892B4383800483CD883F
:100F20008586028470BD70B5002400220023058CE4
:100F30004FF6EF7635400584028C8388048B48F6A3
:100F4000FF752C404FF6FF452C400D884FF6FF767D
:100F500006EA05252C434FF6DF752A400D8906EA7F
:100F600005152A434D8806EA05152A43444DA84233
:100F700002D0494DA8421DD14FF67F752A404D89B8
:100F80004FF6FF7606EA05152A434FF6BF752A404D
:100F90008D8806EA05152A434FF6FF352B404FF2A0
:100FA000FF752B408D8906EA85052B43CD8906EA1E
:100FB00085052B4383800483CD880587028470BD1B
:100FC00070B5002400220023058C4FF6FF663540E3
:100FD0000584028C8388848B4FF68F752C404FF6E6
:100FE000FC752C400D882C434FF6FF552A400D8987
:100FF0004FF6FF7606EA05252A434D8806EA0525C1
:101000002A431F4DA84202D0234DA8421DD14FF2C2
:10101000FF752A404D894FF6FF7606EA05252A43DB
:101020004FF6FF352A408D8806EA05252A434EF6FD
:10103000FF752B404DF6FF752B408D8906EA05158F
:101040002B43CD8906EA05152B4383808483CD8805
:101050008587028470BD70B5002200230024058CB2
:101060004EF6FF7635400584038C8488828B48F6E3
:10107000FF752A404FF6FF452A400D8820E000000A
:10108000002C01400004004000080040000C00401B
:10109000001000400014004000340140004C0140AA
:1010A000005001400054014000180040001C004066
:1010B0000020004000400140004401400048014041
:1010C0004FF6FF7606EA05252A434DF6FF752B40BD
:1010D0000D8906EA05352B434D8806EA05352B4375
:1010E000FA4DA84202D0FA4DA84208D14BF6FF753E
:1010F0002C408D894FF6FF7606EA85152C438480B7
:101100008283CD88A0F84050038470BD828B4FF25B
:10111000FF331A408283828B4FF6FF7303EA012369
:101120001A4382837047F0B50C4615460022002111
:101130000026078C4EF6FF7C07EA0C070784828B9B
:10114000018C4FF6FF7707EA043640F6FF473A4036
:101150004FF6FF7707EA05273A434FF6FF7707EA8E
:1011600003373A43D94FB8420ED0D94FB8420BD0CB
:10117000B0F1804F08D0D74FB84205D0D64FB84213
:1011800002D0D64FB84206D14DF6FF77394046F42B
:101190008057394305E047F6FF57394044F48057FC
:1011A000394382830184F0BD828B4FF6F3731A407A
:1011B0008283828B0A4382837047F0B50C461546C2
:1011C000002200210026078C4FF6FF6C07EA0C076F
:1011D0000784828B018C4FF6FF7707EA04264FF6CF
:1011E0000C773A404FF6FF7707EA03172F433A434D
:1011F000B64FB8420ED0B64FB8420BD0B0F1804FC8
:1012000008D0B44FB84205D0B34FB84202D0B34F64
:10121000B84206D14FF6FF57394046F4807739433C
:1012200005E04FF2FF57394044F480773943828319
:101230000184F0BD028B4FF2FF331A400283028B10
:101240004FF6FF7303EA01231A4302837047F0B598
:101250000C461546002200210026078C4FF6EF7C35
:1012600007EA0C070784028B018C4FF6FF7707EA29
:10127000041640F6FF473A404FF6FF7707EA033778
:101280003A434FF6FF7707EA05273A438F4FB842B4
:101290000ED08F4FB8420BD0B0F1804F08D08D4F99
:1012A000B84205D08C4FB84202D08C4FB84206D11C
:1012B0004FF6DF77394046F01007394305E04FF627
:1012C0005F77394044F01007394302830184F0BD51
:1012D000028B4FF6F3731A400283028B0A43028398
:1012E0007047F0B50C46154600220021068C4FF6DB
:1012F000FE773E400684028B018C4FF60C7632401E
:101300007E1C06EA03162E433243704EB0420ED0C6
:101310006F4EB0420BD0B0F1804F08D06D4EB0424E
:1013200005D06D4EB04202D06C4EB04206D14FF6A1
:10133000FD76314044F00106314305E04FF6F57685
:10134000314044F00106314302830184F0BD70B5A1
:1013500005460C465D4885420ED05D4885420BD05F
:10136000B5F1804F08D05B48854205D05A48854288
:1013700002D05A48854200D100E000BF208850B911
:101380002389A28861882846FFF7ABFFE1882846B9
:10139000FFF79EFF25E0208804280AD12389A28830
:1013A00061882846FFF753FFE1882846FFF742FF90
:1013B00017E0208808280AD12389A2886188284656
:1013C000FFF7FBFEE1882846FFF7EEFE09E02389E0
:1013D000A28861882846FFF7A6FEE1882846FFF725
:1013E00095FE70BD2DE9F04105460C46002601270B
:1013F000608808B9022600E00026A088012801D1F3
:10140000022700E001272088A0B92389A2886188EB
:101410002846FFF766FFE1882846FFF759FF238932
:101420003A4631462846FFF712FFE1882846FFF783
:1014300001FF13E02389A28861882846FFF707FF90
:10144000E1882846FFF7F6FE23893A4631462846CA
:10145000FFF747FFE1882846FFF73AFFBDE8F08134
:101460000A884B881A438B881A43CB881A430B8906
:101470001A434B891A438B891A43A0F844207047BA
:101480004FF6FF71818000210180C180418001728F
:1014900070470021018041808180C18001814181AC
:1014A0008181C181704700210180418001218180BB
:1014B0000021C1800181704700210180418081802D
:1014C000C18001814181818170470000002C014071
:1014D000003401400004004000080040000C0040BF
:1014E00021B1028842F00102028004E002884FF636
:1014F000FE731A400280704731B1B0F8442042F4C4
:101500000042A0F8442005E0B0F84420C2F30E02E7
:10151000A0F8442070471AB183890B43838102E00D
:1015200083898B43838170478182704741EA02033C
:10153000A0F8483070471AB183890B43838102E0D9
:1015400083898B438381704701894FF6F87211407C
:10155000018170470A46002101894FF68F731940B7
:1015600011430181704730B504460D462946204697
:10157000FFF7F0FF208940F00700208130BD2DE902
:10158000F04104460D4616461F46602D06D13B46E7
:10159000012231462046FFF75AFE05E03B46012274
:1015A00031462046FFF79DFE29462046FFF7D2FF31
:1015B000208940F007002081BDE8F08130B50C465D
:1015C00000210189C9B24FF6FF7505EA03251543CD
:1015D00025432943018130BD2DE9F04105460E46E2
:1015E00017469846002443463A4631462846FFF7B8
:1015F000E5FF2C894FF6F870044044F007044FF6DD
:101600008F70044044F070042C81BDE8F081F0B587
:1016100004460D4616461F463B463246294620469E
:10162000FFF7CCFF208940F480402081F0BD018588
:10163000828270470A46002101884FF68F73194055
:10164000114301807047F0B50C4615461E46002137
:10165000002200230189028B038C4FF6F877394072
:1016600021434FF6FC473A4040F201173A434FF608
:10167000DD773B404FF6FF7707EA06172F433B43E2
:10168000018102830384F0BD0A460021018B4FF6DD
:101690008F7319401143018370470A460021018B63
:1016A00048F6FF7319404FF6FF7303EA022319430C
:1016B000018370470A460021818B4FF68F731940D2
:1016C0001143818370470A460021818B48F6FF73DE
:1016D00019404FF6FF7303EA0223194381837047D1
:1016E00021B1028842F08002028004E002884FF6B5
:1016F0007F731A400280704721B1828842F0040251
:10170000828004E082884FF6FB731A408280704723
:1017100021B1828842F00802828004E082884FF67C
:10172000F7731A408280704721B1828842F001022B
:10173000828004E082884FF6FE731A4082807047F0
:101740000A460021018B4FF6F773194011430183BC
:1017500070470A460021018B4FF2FF7319404FF684
:10176000FF7303EA02231943018370470A460021ED
:10177000818B4FF6F77319401143818370470A46F6
:101780000021818B4FF2FF7319404FF6FF7303EA7C
:1017900002231943818370470A460021018B4FF6CB
:1017A000FB7319401143018370470A460021018BE6
:1017B0004FF6FF3319404FF6FF7303EA0223194334
:1017C000018370470A460021818B4FF6FB73194055
:1017D0001143818370470A460021818B4FF6FF3306
:1017E00019404FF6FF7303EA0223194381837047C0
:1017F0000A460021018B4FF67F7319401143018384
:1018000070470A460021018BC1F30E014FF6FF73AA
:1018100003EA02231943018370470A460021818BA2
:101820004FF67F7319401143818370470A460021A8
:10183000818BC1F30E014FF6FF7303EA02231943B4
:10184000818370470A460021018C4FF6FD731940D1
:101850001143018470470A460021018C4FF6F7734B
:1018600019401143018470470A460021018C4FF64C
:10187000DF7319404FF6FF7303EA02131943018423
:1018800070470A460021018C4FF67F7319404FF6CE
:10189000FF7303EA02131943018470470A460021CB
:1018A000018C4FF6FF5319404FF6FF7303EA0223F2
:1018B0001943018470470A460021018C4FF2FF73DF
:1018C00019404FF6FF7303EA02231943018470475E
:1018D0000A460021018C4DF6FF7319404FF6FF7345
:1018E00003EA023319430184704730B50023012411
:1018F0008C40A3B2048C9C430484048C02FA01F54E
:10190000ADB22C43048430BD30B5002304248C4098
:10191000A3B2048C9C430484048C02FA01F5ADB29A
:101920002C43048430BD70B50346002000241846C3
:10193000183001258D40ACB21D8CA5431D8409B122
:10194000082909D100EB6100056825F070050560E4
:101950000568154305600EE00D1FC5F34E052844CC
:10196000056825F4E045056005684FF6FF7606EA50
:1019700002263543056070BD21B1028842F00202A3
:10198000028004E002884FF6FD731A40028070471F
:1019900021B1028842F00402028004E002884FF67E
:1019A000FB731A400280704721B1828842F08002A6
:1019B000828004E082884FF67F731A4082807047ED
:1019C00002884FF6F7731A40028002880A430280A9
:1019D000704782884FF68F731A40828082880A434C
:1019E0008280704702894FF6F8731A40028102899B
:1019F0000A430281704702894FF67F731A400281C1
:101A000002890A430281704781847047818570474B
:101A1000818670470187704781877047A0F8401022
:101A2000704702884FF6FF431A40028002880A433B
:101A3000028070470146888E70470146088F7047C4
:101A40000146888F70470146B1F840007047014653
:101A5000888C70470146088D704702460020138A23
:101A60000B400BB1012000E000207047CA43028206
:101A7000704730B50246002000230024158A05EA8D
:101A80000103958905EA010413B10CB1012000E0BE
:101A9000002030BDCA4302827047000008B5012112
:101AA0004820FFF789F82020ADF8000010208DF8BD
:101AB000030003208DF8020069460948FEF7C0FDC7
:101AC00020210748FEF769FE2020ADF80000694696
:101AD0000448FEF7B5FD20210248FEF75EFE08BD72
:101AE000000C01400018014010B56FF00400FEF733
:101AF00028FD2E4800682E49B0FBF1F02D490870F2
:101B00000846007800EB4001C1EBC0104FF6FF71B2
:101B100001EAC0002849088010BD0146254A127814
:101B20004A434FF0E0235A6100229A611A46126933
:101B300042F001021A6100BF4FF0E022106900F08C
:101B400001021AB100F48032002AF5D04FF0E022F1
:101B5000126922F001024FF0E0231A6100229A611B
:101B600070470146144A12884A434FF0E0235A61F5
:101B700000229A611A46126942F001021A6100BFFE
:101B80004FF0E022106900F001021AB100F4803237
:101B9000002AF5D04FF0E022126922F001024FF046
:101BA000E0231A6100229A617047000008000020BB
:101BB00000127A00300000203200002070B5044688
:101BC0000E4626B11021FE48FEF7E7FD03E0102186
:101BD000FB48FEF7E4FD002517E04021F848FEF73A
:101BE000DEFD04F0800020B18021F548FEF7D5FD30
:101BF00003E08021F248FEF7D2FD4021F048FEF7D5
:101C0000CCFD6006040E681CC5B2082DE5DB102172
:101C1000EB48FEF7C2FD70BD70B504460D4605F1F8
:101C2000B001C8B20021FFF7C9FF102141EA14102A
:101C30000021FFF7C3FF04F00F0141F00100002174
:101C4000FFF7BCFF70BD10B500218D20FFF7B6FF78
:101C500000211420FFF7B2FF0021AF20FFF7AEFFF5
:101C600010BD10B500218D20FFF7A8FF0021102026
:101C7000FFF7A4FF0021AE20FFF7A0FF10BD70B555
:101C8000002419E004F1B001C8B20021FFF796FF6B
:101C900000210846FFF792FF00211020FFF78EFF7A
:101CA000002505E001210020FFF788FF681CC5B270
:101CB000802DF7DB601CC4B2082CE3DB70BD2DE97E
:101CC000F04107460E46904600250024A8F120006A
:101CD000C5B27F2F02DD0027B01CC6B205F120007F
:101CE000802824DA31463846FFF796FF002408E0C2
:101CF00004EB0511B34A505C0121FFF75FFF601C44
:101D0000C4B2082CF4DB701CC1B23846FFF784FF64
:101D1000002409E004EB05110831AA4A505C0121B6
:101D2000FFF74CFF601CC4B2082CF3DB2AE0A5F1DE
:101D30008000C5B231463846FFF76EFF00240AE046
:101D400004EB05119F4A515CC943C8B20121FFF75A
:101D500035FF601CC4B2082CF2DB701CC1B23846DF
:101D6000FFF75AFF00240BE004EB05110831954AF8
:101D7000515CC943C8B20121FFF720FF601CC4B207
:101D8000082CF1DBBDE8F0812DE9F04780460E46D6
:101D900091461F4600240025A9F12000C4B2B8F1E5
:101DA0007F0F02DDA846B01CC6B231464046FFF7A1
:101DB00033FF002514E0012F07D105EB0411814A00
:101DC000505C0121FFF7FAFE08E005EB04117D4AA3
:101DD000515CC943C8B20121FFF7F0FE681CC5B2CF
:101DE000082DE8DB701CC1B24046FFF715FF002547
:101DF00016E0012F08D105EB04110831714A505C3F
:101E00000121FFF7DBFE09E005EB041108316D4A03
:101E1000515CC943C8B20121FFF7D0FE681CC5B2AE
:101E2000082DE6DBBDE8F08710B50246012000E092
:101E300050430B00A1F10104E1B2F9D110BD2DE92D
:101E4000F84F07468A4691461D460A9E002000909C
:101E5000002434E0281B401EC1B20A20FFF7E4FF33
:101E6000B9FBF0F00A21B0FBF1F201FB1208009877
:101E7000A0B9681EA04211DDB8F1000F0CD1B34625
:101E800006EBDB71491001FB0471C8B220225146F8
:101E90000B9BFFF779FF10E001200090B34606EBA3
:101EA000DB71491001FB0471C8B208F13001CAB2FC
:101EB00051460B9BFFF768FF00BF601CC4B2AC42E9
:101EC000C8DBBDE8F88F2DE9FF5F074691461D4648
:101ED0000E9E4FF0000A002433E0281B401EC1B2C2
:101EE0000A20FFF7A1FFB9FBF0F00A21B0FBF1F2E5
:101EF00001FB1208BAF1000F13D1681EA04210DDD9
:101F0000B8F1000F0BD1B34606EBDB71491001FBB2
:101F10000471C8B220220199FFF7D1FE0FE04FF003
:101F2000010AB34606EBDB71491001FB0471C8B22C
:101F300008F13001CAB20199FFF7C1FE00BF601C71
:101F4000C4B2AC42C9DBBDE8FF9F2DE9F0410446B5
:101F50000F46154600260EE0AA5D39462046FFF7DB
:101F6000AEFE04F10800C4B2782C02DD0024B81CD7
:101F7000C7B2701CC6B2A85D0028EDD1BDE8F081E3
:101F80002DE9F04180460E46154600273146404671
:101F9000FFF742FE00240AE00B4A02EB8511085DC0
:101FA0000121FFF70BFE781CC7B2601CC4B2102CD5
:101FB000F2DB701CC1B24046FFF72EFE002412E097
:101FC00000080140BE300008340000206900491CB0
:101FD000F74A02EB4111085D0121FFF7EFFD781C84
:101FE000C7B2601CC4B2102CF0DBBDE8F0812DE953
:101FF000F05F06460F4690461C46DDF828A04FF0DD
:10200000000BE11704EB5171C910A4EBC10131B908
:102010002046E11704EB5171C1F3C70506E02046E5
:10202000E11704EB5171C910491CCDB23D4615E0D2
:1020300029463046FFF7F0FDB1460BE059460BF15B
:10204000010B1AF801000121FFF7B8FD09F10100A9
:1020500000F0FF09C145F1DB681CC5B2A542E7DB12
:10206000BDE8F09F38B501210420FEF7A5FDF02062
:10207000ADF8000010208DF8030003208DF8020059
:102080006946CC48FEF7DCFAF021CA48FEF785FB2A
:102090002021C848FEF781FB6420FFF762FD202164
:1020A000C448FEF77CFB6420FFF75BFD2021C1489C
:1020B000FEF773FB0021AE20FFF780FD00210846EC
:1020C000FFF77CFD00211020FFF778FD0021402064
:1020D000FFF774FD00218120FFF770FD0021CF2064
:1020E000FFF76CFD0021A120FFF768FD0021C8204B
:1020F000FFF764FD0021A620FFF760FD0021A82066
:10210000FFF75CFD00213F20FFF758FD0021D320A1
:10211000FFF754FD00210846FFF750FD0021D520B0
:10212000FFF74CFD00218020FFF748FD0021D9205A
:10213000FFF744FD0021F120FFF740FD0021DA20E8
:10214000FFF73CFD00211220FFF738FD0021DB20C6
:10215000FFF734FD00214020FFF730FD0021202053
:10216000FFF72CFD00210220FFF728FD00218D2024
:10217000FFF724FD00211420FFF720FD0021A420FB
:10218000FFF71CFD0021A620FFF718FD0021AF205E
:10219000FFF714FD0021AF20FFF710FDFFF76FFDE3
:1021A00000210846FFF738FDFFF769FD00210846CA
:1021B000FFF732FD00240CE0002506E000207E49F8
:1021C00001EBC4114855681CC5B2802DF6DB601CBC
:1021D000C4B2082CF0DB38BDF0B50246C51700EBE1
:1021E0005565ED11A0EBC515EBB20D46CF1701EB10
:1021F0005777FA10D71702EB5777FF10A2EBC707F4
:10220000FCB20A46CD1701EB5575ED10A1EBC505E3
:10221000EEB2694A02EBC412D55C0122B24015430A
:10222000EAB2654D05EBC415EA54F0BD00200CE0A0
:10223000002106E00022604B03EBC0135A544A1CF5
:10224000D1B28029F6DB421CD0B20828F0DB7047FF
:1022500070B5002412E021460020FFF7DDFC0025C8
:1022600008E0554901EBC411485D0121FFF7A6FCC8
:10227000681CC5B2802DF4DB601CC4B2082CEADBFC
:1022800070BD2DE9FF4F84B081468A46002003903F
:1022900002900698A0EB09050798A0EB0A06CDF876
:1022A0000490CDF800A0002D01DD012705E00DB957
:1022B000002702E04FF0FF376D42002E02DD4FF0A5
:1022C000010806E016B94FF0000802E04FF0FF38B1
:1022D0007642B54201DD2C4600E034464FF0000B5B
:1022E00021E0009AD1B2019AD0B2FFF775FF0398AE
:1022F000284403900298304402900398A04205DDE0
:102300000398001B03900198384401900298A04262
:1023100005DD0298001B02900098404400900BF1EC
:1023200001001FFA80FB601C8345DADD08B0BDE8C0
:10233000F08F70B504460D46002229462046FFF76F
:102340001FFE04F11001C8B201222946FFF718FE52
:1023500004F12001C8B204222946FFF711FE04F15E
:102360003001C8B205222946FFF70AFE70BD70B5DC
:1023700004460D46082229462046FFF701FE04F1D7
:102380001001C8B206222946FFF7FAFD70BD70B5EC
:1023900004460D46002229462046FFF7F1FD04F1D0
:1023A0001001C8B201222946FFF7EAFD70BD000006
:1023B0003400002000080140A402002070B504464B
:1023C0000D46062229462046FFF7DAFD04F11001EA
:1023D000C8B207222946FFF7D3FD04F12001C8B295
:1023E00002222946FFF7CCFD04F13001C8B20322D6
:1023F0002946FFF7C5FD70BD70B504460D460022A5
:1024000029462046FFF7BCFD04F11001C8B20122A5
:102410002946FFF7B5FD04F12001C8B20222294682
:10242000FFF7AEFD04F13001C8B203222946FFF7E1
:10243000A7FD70BD70B504460D460622294620460C
:10244000FFF79EFD04F11001C8B207222946FFF7ED
:1024500097FD04F12001C8B202222946FFF790FD42
:1024600004F13001C8B203222946FFF789FD70BD8F
:10247000F0B587B004460E461746039602943D46D3
:102480000020019077E0287880280FDA03960294E4
:102490002A78BDF80C30D9B2BDF80830D8B2FFF7B1
:1024A0000EFC04F1080084B26D1C64E00020019071
:1024B00019E02878BDF8041001EB0111B64A12F8B2
:1024C000111088420AD16878BDF8041001EB01119F
:1024D00002EB41014978884200D108E0BDF80400D0
:1024E000401C80B20190BDF804002228E1D300BF57
:1024F000BDF80400222801D10020019000200490A2
:1025000031E002949DF81000304480B20390BDF891
:102510000C20D1B2E0B2FFF77FFB0020059019E05C
:10252000BDF8040000EB00109B4901EB4000801C4B
:102530009DF810109DF8142002EB0111405C0690EC
:1025400001219DF81800FFF739FB9DF81400401C8D
:10255000C0B205909DF814001028E1DB9DF8100032
:10256000401CC0B204909DF810000228C9DB04F1A1
:10257000100084B2AD1C2878002884D107B0F0BDCB
:102580002DE9F04186B004460E461746984602965D
:1025900001943D460020009083E02878802810DADE
:1025A000029601942A78BDF80830D9B2BDF80430FB
:1025B000D8B24346FFF7E8FB04F1080084B26D1C73
:1025C0006FE00020009019E02878BDF8001001EBC2
:1025D0000111714A12F8111088420AD16878BDF8C9
:1025E000001001EB011102EB41014978884200D152
:1025F00008E0BDF80000401C80B20090BDF800006B
:102600002228E1D300BFBDF80000222801D100201C
:102610000090002003903CE001949DF80C003044B1
:1026200080B20290BDF80820D1B2E0B2FFF7F4FA10
:102630000020049024E0BDF8000000EB0010564993
:1026400001EB4000801C9DF80C109DF8102002EB5F
:102650000111405C0590B8F1000F05D001219DF8F3
:102660001400FFF7ABFA06E09DF81410C943C8B296
:102670000121FFF7A3FA9DF81000401CC0B204909E
:102680009DF810001028D6DB9DF80C00401CC0B24D
:1026900003909DF80C000228BEDB04F1100084B208
:1026A000AD1C287800287FF478AF06B0BDE8F08133
:1026B0002DE9F0470746884615461E4641463846EE
:1026C000FFF7AAFA002405E00121FC20FFF776FAC3
:1026D000601CC4B2042CF7DB0121FF20FFF76EFA67
:1026E000002405E001210320FFF768FA601CC4B252
:1026F000B442F7DB0121FF20FFF760FA781D304478
:10270000401B00F0FF0941464846FFF785FA0024C8
:1027100005E00121FF20FFF751FA601CC4B2681CDC
:102720008442F6DB08F10100C1B23846FFF774FAC3
:10273000002405E001213F20FFF740FA601CC4B2ED
:10274000042CF7DB0121FF20FFF738FA002405E015
:102750000121C020FFF732FA601CC4B2B442F7DB9B
:102760000121FF20FFF72AFA781D3044401B00F0BA
:10277000FF0908F10100C1B24846FFF74DFA0024F5
:1027800005E00121FF20FFF719FA601CC4B2681CA4
:102790008442F6DBBDE8F087AE36000808B50121BB
:1027A0000820FEF709FA4FF47040ADF8000003204E
:1027B0008DF8020010208DF8030069469C48FDF753
:1027C0003FFF08BD08B501210820FEF7F5F94FF4D9
:1027D0003040ADF8000003208DF8020010208DF885
:1027E000030069469248FDF72BFF4FF48040ADF897
:1027F000000004208DF8030069468D48FDF720FF96
:1028000008BD00E0401E0028FCDC70472DE9F041C7
:1028100005460E4600270024A04601208549086091
:10282000FFF77BF900208449C1F8BC018149091DEB
:1028300008600120FFF771F92C462AE0301910F8E2
:10284000017C4FF000081FE007F08000802804D1D1
:10285000012078490831086003E0002075490831FB
:1028600008600120FFF759F9012072490C31086016
:10287000FFF753F97806070E00206F49C1F8BC0135
:1028800008F1010000F0FF08B8F1080FDCDB601E62
:10289000C4B2002CD2DC0020664908310860012057
:1028A000FFF73BF901206449C1F8B401FFF735F99E
:1028B00000206049091D0860BDE8F0812DE9F0475E
:1028C00006460F460024A046A1460025FFF77AFFE2
:1028D000012058490860FFF720F900205649C1F847
:1028E000BC015449091D08600120FFF716F9344660
:1028F00028E04FF000081DE06806050E0120FFF7F4
:102900000CF94C487838006800F0FF0901204A496A
:10291000C1F8BC0109F0010008B145F00105012032
:10292000FFF7FBF8002043490C31086008F1010073
:1029300000F0FF08B8F1080FDEDB381900F8015C81
:10294000601EC4B2002CD4DC0120FFF7E6F80120A1
:102950003849091D0860FFF7E0F800203649C1F842
:10296000B401BDE8F08708B500200090FFF716FF1E
:1029700000208DF8030058208DF8020000208DF80B
:10298000010005208DF8000069460420FFF73EFF96
:1029900000208DF80300EC208DF8020080208DF8D7
:1029A00001003C208DF8000069460420FFF72EFF4F
:1029B00000208DF803008DF8020004208DF801003E
:1029C000B3208DF8000069460420FFF71FFF0020A8
:1029D0008DF8030001208DF802000E208DF8010013
:1029E00042208DF8000069460420FFF70FFF002009
:1029F0008DF803008DF8020080208DF80100292059
:102A00008DF8000069460420FFF700FF00208DF8D4
:102A100003002C208DF8020080208DF80100182082
:102A20008DF8000069460420FFF7F0FE08BD0000A5
:102A3000000C0140B08121420080214200B585B0E8
:102A400001210420FEF7B8F801210220FEF7C1F8A9
:102A500048208DF813000F20ADF8100001208DF8EC
:102A6000120004A95648FDF7EBFD5648FEF708F999
:102A70004720ADF8040040F2E730ADF80800002030
:102A8000ADF80A00ADF8060001A94E48FEF7CCF9F2
:102A9000012241214B48FEF73EFD01214948FEF746
:102AA0001FFD1D208DF8000001208DF803008DF81A
:102AB00001008DF802006846FDF7F9FC05B000BD85
:102AC0003F480830006860F00F00C1433E4A12687A
:102AD00081EA020008403D4A10603B4801603C48E2
:102AE000006820B93B4800680A303B4A106037480C
:102AF000006810B10120364A10603548006850B3B4
:102B000034480068344A1268904224D93148006839
:102B100010F10A0F1FD22C480068012806D00228A5
:102B200008D004280AD0082810D10BE001202B4A35
:102B300010600FE00220294A10600BE00320274AB2
:102B4000106007E00420254A106003E00020234ABB
:102B5000106000BF00BF22480068B0F57A7F23D321
:102B600040F29E201E4A106017480068012806D0D7
:102B7000022808D004280AD0082810D10BE00B2026
:102B8000164A10600FE00C20144A10600BE00D2074
:102B9000124A106007E00E20104A106003E0002087
:102BA0000E4A106000BF00BF0C48006870470B4819
:102BB000006820B100200649086008490860704795
:102BC00000080140000400408C0200208802002020
:102BD000900200207402002084020020780200206D
:102BE0008002002002467A48007838B979480068A7
:102BF0001044794B18600120754B187075480068B7
:102C0000754B1B68984205D30020714B187001204A
:102C1000087070470020FCE710B50346087808B933
:102C2000002010BD6D48007838B96A480068184423
:102C30006B4C20600120694C207066480068684C2D
:102C40002468A04206D30020644C20700870012044
:102C50001070E6E70020E4E77FB5002001900290C5
:102C60000390009005241E2501208DF80E008DF89C
:102C700002005CA204211020FFF7FAFB5BA20621F0
:102C80003820FFF7F5FBA0E001AA0DF10E01204668
:102C9000FFF7C2FF20B157A200212020FFF7E8FB79
:102CA0000DF1050201A92046FFF7B6FF20B152A29F
:102CB00000213020FFF7DCFB0DF10602511E2046FB
:102CC000FFF7AAFF20B14DA200214020FFF7D0FB63
:102CD0000DF10702511E2046FFF79EFF20B148A2CA
:102CE00000215020FFF7C4FB02AA511E2046FFF727
:102CF00093FF20B143A202211020FFF7B9FB0DF191
:102D0000090202A92046FFF787FF20B13EA2022157
:102D10002020FFF7ADFB0DF10A02511E2046FFF700
:102D20007BFF20B139A202213020FFF7A1FB0DF17A
:102D30000B02511E2046FFF76FFF20B134A2022183
:102D40004020FFF795FB03AA511E2046FFF764FFC2
:102D500020B130A202215020FFF78AFB0DF10D02B5
:102D600003A92046FFF758FF20B12BA202216020C3
:102D7000FFF77EFB01AA0DF10D012046FFF74CFF86
:102D800000B123E06A46911C2846FFF745FF20B1B9
:102D900022A206216820FFF76BFB0DF101026946B4
:102DA0002846FFF739FF20B11DA206217020FFF74A
:102DB0005FFB0DF10202511E2846FFF72DFF20B1E7
:102DC00017A206217820FFF753FB5DE700BF7FBD08
:102DD0009602002004000020980200209C0200209F
:102DE000A00200204144463433357800B3F5CABC14
:102DF000BBAF0000BFB50000CDFE0000B5E700008E
:102E0000D7D30000BDDF0000B3CF0000CEAA000082
:102E1000C4FA0000B7FE0000CEF100002E20200012
:102E20002E000000704770477047754600F028F884
:102E3000AE4605006946534620F00700854618B0A7
:102E400020B5FDF71DFBBDE820404FF000064FF018
:102E500000074FF000084FF0000B21F00701AC46CF
:102E6000ACE8C009ACE8C009ACE8C009ACE8C009EE
:102E70008D4670470446AFF300802046FDF79DF96C
:102E800000487047A406002001491820ABBEFEE7A9
:102E90002600020070470000000000000000002F24
:102EA000000000000700070000147F147F140024B6
:102EB0002A7F2A12006264081323003649552250E3
:102EC00000000503000000001C2241000000412218
:102ED0001C000014083E08140008083E0808000002
:102EE00000A06000000808080808000060600000FA
:102EF000002010080402003E5149453E0000427F78
:102F00004000004261514946002141454B310018C3
:102F100014127F10002745454539003C4A49493085
:102F2000000171090503003649494936000649493F
:102F3000291E00003636000000005636000000084A
:102F40001422410000141414141400004122140827
:102F500000020151090600324959513E007C12110C
:102F6000127C007F49494936003E41414122007FA1
:102F70004141221C007F49494941007F090909015B
:102F8000003E4149497A007F0808087F0000417FE0
:102F90004100002040413F01007F08142241007F92
:102FA00040404040007F020C027F007F0408107FF9
:102FB000003E4141413E007F09090906003E415162
:102FC000215E007F0919294600464949493100011F
:102FD000017F0101003F4040403F001F2040201F73
:102FE000003F4038403F0063140814630007087036
:102FF000080700615149454300007F4141000055E9
:103000002A552A55000041417F00000402010204B4
:1030100000404040404000000102040000205454A1
:103020005478007F484444380038444444200038F1
:103030004444487F00385454541800087E09010263
:103040000018A4A4A47C007F080404780000447D38
:103050004000004080847D00007F10284400000074
:10306000417F4000007C04180478007C0804047848
:1030700000384444443800FC242424180018242434
:1030800018FC007C08040408004854545420000430
:103090003F444020003C4040207C001C2040201C3D
:1030A000003C4030403C004428102844001CA0A0B4
:1030B000A07C004464544C441414141414140000F0
:1030C0000000000000000000000000000000000000
:1030D00000F8000000000000003330000000001085
:1030E0000C06100C0600000000000000000040C0AC
:1030F0007840C0784000043F04043F04040000709E
:1031000088FC08300000001820FF211E0000F00895
:10311000F000E018000000211C031E211E0000F03A
:103120000888700000001E21232419272110101682
:103130000E00000000000000000000000000000081
:1031400000E0180402000000000718204000000200
:103150000418E00000000040201807000000404074
:1031600080F0804040000202010F010202000000D6
:1031700000F0000000000101011F0101010000003A
:1031800000000000000080B070000000000000009F
:103190000000000000000001010101010101000028
:1031A00000000000000000303000000000000000BF
:1031B000000080601804006018060100000000E0B4
:1031C00010080810E000000F102020100F00001061
:1031D00010F8000000000020203F202000000070B8
:1031E00008080888700000302824222130000030B0
:1031F0000888884830000018202020110E000000A8
:10320000C02010F8000000070424243F240000F828
:103210000888880808000019212020110E0000E00D
:10322000108888180000000F112020110E000038AF
:103230000808C83808000000003F000000000070C7
:10324000880808887000001C222121221C0000E050
:1032500010080810E0000000312222110F000000C9
:1032600000C0C0000000000000303000000000007E
:1032700000800000000000008060000000000000EE
:103280008040201008000001020408102000404087
:1032900040404040400004040404040404000008CA
:1032A000102040800000002010080402010000707F
:1032B00048080808F0000000003036010000C03067
:1032C000C828E810E0000718272423140B0000008A
:1032D000C038E0000000203C23020227382008F814
:1032E000888888700000203F202020110E00C03008
:1032F000080808083800071820202010080008F8DF
:1033000008080810E000203F202020100F0008F8D7
:103310008888E8081000203F20202320180008F8A3
:103320008888E8081000203F200003000000C0301B
:1033300008080838000007182020221E020008F89C
:1033400008000008F808203F210101213F20000863
:1033500008F8080800000020203F2020000000009E
:103360000808F8080800C08080807F00000008F886
:1033700088C028180800203F20012638200008F8BF
:10338000080000000000203F20202020300008F826
:10339000F800F8F80800203F003F003F200008F840
:1033A00030C00008F808203F200007183F00E01058
:1033B00008080810E0000F10202020100F0008F867
:1033C00008080808F000203F210101010000E0107A
:1033D00008080810E0000F18242438504F0008F89F
:1033E000888888887000203F2000030C30200070FF
:1033F0008808080838000038202121221C001808FD
:1034000008F8080818000000203F2000000008F815
:1034100008000008F808001F202020201F0008785E
:10342000880000C83808000007380E010000F808BE
:1034300000F80008F800033C0700073C03000818E8
:1034400068808068180820302C03032C302008384E
:10345000C800C83808000000203F20000000100805
:103460000808C8380800203826212020180000004D
:1034700000FE020202000000007F40404000000CFD
:1034800030C000000000000000010638C00000024B
:103490000202FE000000004040407F0000000000EB
:1034A000040202020400000000000000000000000E
:1034B000000000000000808080808080808000020A
:1034C00002040000000000000000000000000000F6
:1034D0008080808000000019242222223F2008F8EA
:1034E000008080000000003F112020110E0000002D
:1034F000008080800000000E1120202011000000BC
:1035000000808088F800000E112020103F2000006D
:10351000808080800000001F222222221300008071
:1035200080F0888888180020203F202000000000BC
:10353000808080808000006B94949493600008F8F1
:10354000008080800000203F210000203F2000807C
:103550009898000000000020203F2020000000007C
:1035600000809898000000C08080807F000008F8EC
:10357000000080808000203F24022D3020000008C1
:1035800008F8000000000020203F2020000080807C
:10359000808080808000203F20003F20003F80808E
:1035A000008080800000203F210000203F2000009C
:1035B000808080800000001F202020201F0080804D
:1035C00000808000000080FFA12020110E0000007C
:1035D000008080808000000E112020A0FF8080806D
:1035E00080008080800020203F212000010000001A
:1035F00080808080800000332424242419000080EF
:1036000080E0808000000000001F202000008080FB
:10361000000000808000001F202020103F208080BC
:1036200080000080808000010E300806010080804C
:103630000080008080800F300C030C300F00008071
:103640008000808080000020312E0E31200080809C
:1036500080000080808080818E70180601000080CC
:103660008080808080000021302C222130000000EA
:103670000000807C020200000000003F404000008B
:103680000000FF00000000000000FF00000000023A
:10369000027C800000000040403F00000000000667
:1036A0000101020204040000000000000000D7D362
:1036B00080828282828282E2A2928A8682808000D6
:1036C000000000000040807F0000000000000000BB
:1036D000CDFE0000F8484848C8484848FF0809CAD5
:1036E000080080601F828A5623528E402718264188
:1036F000F000BFB50000FC4454545455FE545454DB
:10370000F444440040300F40231549817F050911DE
:1037100029444000B5E70000F888888888FF888839
:103720008888F800000000001F080808087F8888C3
:1037300088889F80F000B1E38060F80700FA4A4A69
:103740004AFE4A4A4AFA02000000FF008083462AE5
:10375000122F424282838000D0AF101010FF1090D1
:1037600008FC5754FD56545404000444827F0180E1
:1037700044271D0505155D957100CABD1010909078
:103780009090901010FF1010111610000020602073
:103790003F10101000030C102040F800C6B5407C0C
:1037A000407F484840F2121AD61212F20200908E60
:1037B000404F201E804F20180710204F8000C2CAA3
:1037C0000014A4442434AD6624940444A4140000DA
:1037D00008090808090909FD09090B080809080072
:1037E000D4B41060028C00FE02F2525A565252F2C9
:1037F000020004047E41300F201349817F01091328
:103800002000B3F5080889EA1888000404FC0404C1
:1038100004FC0000020100FF0186402018074080E0
:10382000403F0000CABC1010F01F10F00040E058EC
:1038300047405060C0004022150816210000FE429B
:10384000424242FE0000BBAF008060F8070000006B
:10385000FF40201008040000010000FF00040201E6
:103860003F40404040407800BDDFC808090EE808EE
:1038700000BEEAAAAAAAAABE8000206F201C1310CC
:10388000011E1014135490403F00B3CF4042CC00AF
:1038900000F888888808FF0809CA080000003F90DF
:1038A000681F10209F4027182641F000CEAA002054
:1038B000222C2020E03F20202020E000000080403B
:1038C000201008060100014680403F000000C4FAB5
:1038D000201008FC2310886704F40424548C000092
:1038E00040300077808188B2848380E000116000DE
:1038F000B7FE0000FE222222FE00FE828292A29EDD
:10390000000080601F0242827F00FF402F102C4386
:103910008000CEF1000090884C57A42454548C842D
:103920000000000001018042221A07024282423E4A
:1039300001010100A1FC0000000040301CFF1C3010
:1039400040000000000000000000000000FF000038
:10395000000000000000A1FD00000000000000FFCA
:10396000000000000000000000000000020C38FF12
:10397000380C020000000000A1FB8080C0C0E0A065
:1039800090808080808080808000000001010302A0
:1039900004000000000000000000A1FA8080808088
:1039A0008080808090A0E0C0C08080000000000087
:1039B000000000000402030101000000C9A810106B
:1039C00010FF109004848484848484FC00000444E8
:1039D000827F0100202020202020207F0000B5E3EE
:1039E0000000C04040407F48484848C808080000E0
:1039F00080403704041464041464040710E00000D9
:103A0000CCF8003E22E2223E000810FF00FFA0108A
:103A10000800407E403F22228042310F007F80819B
:103A2000F200D2C62424A4FE2322001008946724A6
:103A3000940C0000080601FF0106008989444A33FE
:103A4000120A0600CFE0101010D0FF901000FE22E6
:103A5000222222FE000008040300FF000300FF42B0
:103A6000424242FF0000C8B70484E45C44C4201012
:103A7000E82724E4342CE00002017F10103F80602E
:103A80001F09093F49897F00C8CF404042CC000050
:103A9000000000FF0000000000000000003F904810
:103AA00020180700071820408000B7B5404042CCDE
:103AB0000000FC24A4242222A36200000040201F56
:103AC000205847504845424548504000BBD8000068
:103AD000FE0202F2121212F20202FE0000000000C8
:103AE0007F2020272424242720207F00000000009E
:103AF000103B000800000020A4020000280100087C
:103B0000103C0008A4020020640A000084010008A0
:103B10009184A24A04680901020304060708090CFB
:103B200069105502040608000D14404244584040F4
:103B30007F40405048C67B4044010213FF180D08E7
:103B400008E8292E28E80808C80C0B06011326FFF0
:103B50000949897F1C0F4080060111151060028CF5
:103B60003BFE92010213FE180804047E01444850F3
:103B7000A006137F504844402809FC242424FC2537
:103B800026240879F789BF080F14308F80844C559C
:103B9000252525554C8080808059810916801E403E
:103BA0007E42427E020B50427E8015404042CC0055
:103BB0000B1440A09E8282829EA02020080B113F01
:103BC000908840432C10284641401118081715D5FD
:103BD0005557557D040412D515174E4040407F556A
:103BE000011A7F0C011117424AD26A46C008091017
:103BF000F2121AD61212F2024013807F1201080943
:103C000011804F20180710204F80011FF201000083
:04000005080000ED02
:00000001FF
